{
  "_format": "hh-sol-artifact-1",
  "contractName": "FlightSuretyApp",
  "sourceName": "src/sol/App.sol",
  "abi": [
    {
      "inputs": [
        {
          "internalType": "address",
          "name": "dataContractAddress",
          "type": "address"
        }
      ],
      "stateMutability": "nonpayable",
      "type": "constructor"
    },
    {
      "anonymous": false,
      "inputs": [
        {
          "indexed": false,
          "internalType": "string",
          "name": "flightRef",
          "type": "string"
        },
        {
          "indexed": false,
          "internalType": "string",
          "name": "destination",
          "type": "string"
        },
        {
          "indexed": false,
          "internalType": "uint256",
          "name": "timestamp",
          "type": "uint256"
        },
        {
          "indexed": false,
          "internalType": "uint8",
          "name": "statusCode",
          "type": "uint8"
        }
      ],
      "name": "FlightProcessed",
      "type": "event"
    },
    {
      "anonymous": false,
      "inputs": [
        {
          "indexed": false,
          "internalType": "string",
          "name": "flightRef",
          "type": "string"
        },
        {
          "indexed": false,
          "internalType": "string",
          "name": "to",
          "type": "string"
        },
        {
          "indexed": false,
          "internalType": "uint256",
          "name": "landing",
          "type": "uint256"
        }
      ],
      "name": "FlightRegistered",
      "type": "event"
    },
    {
      "anonymous": false,
      "inputs": [
        {
          "indexed": false,
          "internalType": "string",
          "name": "flight",
          "type": "string"
        },
        {
          "indexed": false,
          "internalType": "string",
          "name": "destination",
          "type": "string"
        },
        {
          "indexed": false,
          "internalType": "uint256",
          "name": "timestamp",
          "type": "uint256"
        },
        {
          "indexed": false,
          "internalType": "uint8",
          "name": "status",
          "type": "uint8"
        }
      ],
      "name": "FlightStatusInfo",
      "type": "event"
    },
    {
      "anonymous": false,
      "inputs": [
        {
          "indexed": false,
          "internalType": "uint8[3]",
          "name": "indexes",
          "type": "uint8[3]"
        }
      ],
      "name": "OracleRegistered",
      "type": "event"
    },
    {
      "anonymous": false,
      "inputs": [
        {
          "indexed": false,
          "internalType": "string",
          "name": "flight",
          "type": "string"
        },
        {
          "indexed": false,
          "internalType": "string",
          "name": "destination",
          "type": "string"
        },
        {
          "indexed": false,
          "internalType": "uint256",
          "name": "timestamp",
          "type": "uint256"
        },
        {
          "indexed": false,
          "internalType": "uint8",
          "name": "status",
          "type": "uint8"
        }
      ],
      "name": "OracleReport",
      "type": "event"
    },
    {
      "anonymous": false,
      "inputs": [
        {
          "indexed": false,
          "internalType": "uint8",
          "name": "index",
          "type": "uint8"
        },
        {
          "indexed": false,
          "internalType": "string",
          "name": "flight",
          "type": "string"
        },
        {
          "indexed": false,
          "internalType": "string",
          "name": "destination",
          "type": "string"
        },
        {
          "indexed": false,
          "internalType": "uint256",
          "name": "timestamp",
          "type": "uint256"
        }
      ],
      "name": "OracleRequest",
      "type": "event"
    },
    {
      "anonymous": false,
      "inputs": [
        {
          "indexed": false,
          "internalType": "address",
          "name": "recipient",
          "type": "address"
        }
      ],
      "name": "WithdrawRequest",
      "type": "event"
    },
    {
      "inputs": [],
      "name": "REGISTRATION_FEE",
      "outputs": [
        {
          "internalType": "uint256",
          "name": "",
          "type": "uint256"
        }
      ],
      "stateMutability": "view",
      "type": "function"
    },
    {
      "inputs": [
        {
          "internalType": "string",
          "name": "_flight",
          "type": "string"
        },
        {
          "internalType": "string",
          "name": "_to",
          "type": "string"
        },
        {
          "internalType": "uint256",
          "name": "_landing",
          "type": "uint256"
        },
        {
          "internalType": "uint256",
          "name": "amount",
          "type": "uint256"
        }
      ],
      "name": "book",
      "outputs": [],
      "stateMutability": "payable",
      "type": "function"
    },
    {
      "inputs": [
        {
          "internalType": "string",
          "name": "flight",
          "type": "string"
        },
        {
          "internalType": "string",
          "name": "destination",
          "type": "string"
        },
        {
          "internalType": "uint256",
          "name": "timestamp",
          "type": "uint256"
        }
      ],
      "name": "fetchFlightStatus",
      "outputs": [],
      "stateMutability": "nonpayable",
      "type": "function"
    },
    {
      "inputs": [],
      "name": "fund",
      "outputs": [],
      "stateMutability": "payable",
      "type": "function"
    },
    {
      "inputs": [],
      "name": "getMyIndexes",
      "outputs": [
        {
          "internalType": "uint8[3]",
          "name": "",
          "type": "uint8[3]"
        }
      ],
      "stateMutability": "view",
      "type": "function"
    },
    {
      "inputs": [],
      "name": "minFund",
      "outputs": [
        {
          "internalType": "uint256",
          "name": "",
          "type": "uint256"
        }
      ],
      "stateMutability": "view",
      "type": "function"
    },
    {
      "inputs": [],
      "name": "operational",
      "outputs": [
        {
          "internalType": "bool",
          "name": "",
          "type": "bool"
        }
      ],
      "stateMutability": "view",
      "type": "function"
    },
    {
      "inputs": [
        {
          "internalType": "bytes32",
          "name": "",
          "type": "bytes32"
        }
      ],
      "name": "oracleResponses",
      "outputs": [
        {
          "internalType": "address",
          "name": "requester",
          "type": "address"
        },
        {
          "internalType": "bool",
          "name": "isOpen",
          "type": "bool"
        }
      ],
      "stateMutability": "view",
      "type": "function"
    },
    {
      "inputs": [
        {
          "internalType": "address",
          "name": "airlineAddress",
          "type": "address"
        }
      ],
      "name": "registerAirline",
      "outputs": [],
      "stateMutability": "nonpayable",
      "type": "function"
    },
    {
      "inputs": [
        {
          "internalType": "uint256",
          "name": "takeOff",
          "type": "uint256"
        },
        {
          "internalType": "uint256",
          "name": "landing",
          "type": "uint256"
        },
        {
          "internalType": "string",
          "name": "flightRef",
          "type": "string"
        },
        {
          "internalType": "uint256",
          "name": "price",
          "type": "uint256"
        },
        {
          "internalType": "string",
          "name": "from",
          "type": "string"
        },
        {
          "internalType": "string",
          "name": "to",
          "type": "string"
        }
      ],
      "name": "registerFlight",
      "outputs": [],
      "stateMutability": "nonpayable",
      "type": "function"
    },
    {
      "inputs": [],
      "name": "registerOracle",
      "outputs": [],
      "stateMutability": "payable",
      "type": "function"
    },
    {
      "inputs": [
        {
          "internalType": "bool",
          "name": "mode",
          "type": "bool"
        }
      ],
      "name": "setOperatingStatus",
      "outputs": [],
      "stateMutability": "nonpayable",
      "type": "function"
    },
    {
      "inputs": [
        {
          "internalType": "uint8",
          "name": "index",
          "type": "uint8"
        },
        {
          "internalType": "string",
          "name": "flight",
          "type": "string"
        },
        {
          "internalType": "string",
          "name": "destination",
          "type": "string"
        },
        {
          "internalType": "uint256",
          "name": "timestamp",
          "type": "uint256"
        },
        {
          "internalType": "uint8",
          "name": "statusCode",
          "type": "uint8"
        }
      ],
      "name": "submitOracleResponse",
      "outputs": [],
      "stateMutability": "nonpayable",
      "type": "function"
    },
    {
      "inputs": [
        {
          "internalType": "address",
          "name": "airlineToBeAdded",
          "type": "address"
        }
      ],
      "name": "votesLeft",
      "outputs": [
        {
          "internalType": "uint256",
          "name": "remainingVotes",
          "type": "uint256"
        }
      ],
      "stateMutability": "view",
      "type": "function"
    },
    {
      "inputs": [],
      "name": "withdraw",
      "outputs": [],
      "stateMutability": "nonpayable",
      "type": "function"
    }
  ],
  "bytecode": "0x6080604052670de0b6b3a76400006001556000600460006101000a81548160ff021916908360ff16021790555034801561003857600080fd5b506040516134153803806134158339818101604052602081101561005b57600080fd5b81019080805190602001909291905050506001600260146101000a81548160ff02191690831515021790555033600260006101000a81548173ffffffffffffffffffffffffffffffffffffffff021916908373ffffffffffffffffffffffffffffffffffffffff160217905550806000806101000a81548173ffffffffffffffffffffffffffffffffffffffff021916908373ffffffffffffffffffffffffffffffffffffffff160217905550506132fd806101186000396000f3fe6080604052600436106100e85760003560e01c806364b4f7511161008a5780639e8c9bb9116100595780639e8c9bb914610635578063b60d4288146106a3578063bdfd9877146106ad578063cc669851146106fe576100e8565b806364b4f75114610344578063807819e01461036f5780639068af281461046e57806396ee10cd14610553576100e8565b8063339d2590116100c6578063339d2590146101825780633bd919f11461018c5780633ccfd60b146102da5780635f1cc0e6146102f1576100e8565b80630a401086146100ed578063110466ed1461011a5780631eda3eb814610157575b600080fd5b3480156100f957600080fd5b50610102610763565b60405180821515815260200191505060405180910390f35b34801561012657600080fd5b506101556004803603602081101561013d57600080fd5b81019080803515159060200190929190505050610776565b005b34801561016357600080fd5b5061016c6108c4565b6040518082815260200191505060405180910390f35b61018a6108ca565b005b34801561019857600080fd5b506102d8600480360360c08110156101af57600080fd5b810190808035906020019092919080359060200190929190803590602001906401000000008111156101e057600080fd5b8201836020820111156101f257600080fd5b8035906020019184600183028401116401000000008311171561021457600080fd5b9091929391929390803590602001909291908035906020019064010000000081111561023f57600080fd5b82018360208201111561025157600080fd5b8035906020019184600183028401116401000000008311171561027357600080fd5b90919293919293908035906020019064010000000081111561029457600080fd5b8201836020820111156102a657600080fd5b803590602001918460018302840111640100000000831117156102c857600080fd5b9091929391929390505050610a4f565b005b3480156102e657600080fd5b506102ef610dca565b005b3480156102fd57600080fd5b50610306610f1f565b6040518082600360200280838360005b83811015610331578082015181840152602081019050610316565b5050505090500191505060405180910390f35b34801561035057600080fd5b50610359611092565b6040518082815260200191505060405180910390f35b34801561037b57600080fd5b5061046c600480360360a081101561039257600080fd5b81019080803560ff169060200190929190803590602001906401000000008111156103bc57600080fd5b8201836020820111156103ce57600080fd5b803590602001918460018302840111640100000000831117156103f057600080fd5b90919293919293908035906020019064010000000081111561041157600080fd5b82018360208201111561042357600080fd5b8035906020019184600183028401116401000000008311171561044557600080fd5b909192939192939080359060200190929190803560ff16906020019092919050505061109e565b005b34801561047a57600080fd5b506105516004803603606081101561049157600080fd5b81019080803590602001906401000000008111156104ae57600080fd5b8201836020820111156104c057600080fd5b803590602001918460018302840111640100000000831117156104e257600080fd5b90919293919293908035906020019064010000000081111561050357600080fd5b82018360208201111561051557600080fd5b8035906020019184600183028401116401000000008311171561053757600080fd5b909192939192939080359060200190929190505050611535565b005b6106336004803603608081101561056957600080fd5b810190808035906020019064010000000081111561058657600080fd5b82018360208201111561059857600080fd5b803590602001918460018302840111640100000000831117156105ba57600080fd5b9091929391929390803590602001906401000000008111156105db57600080fd5b8201836020820111156105ed57600080fd5b8035906020019184600183028401116401000000008311171561060f57600080fd5b9091929391929390803590602001909291908035906020019092919050505061167e565b005b34801561064157600080fd5b5061066e6004803603602081101561065857600080fd5b8101908080359060200190929190505050611b0c565b604051808373ffffffffffffffffffffffffffffffffffffffff16815260200182151581526020019250505060405180910390f35b6106ab611b5d565b005b3480156106b957600080fd5b506106fc600480360360208110156106d057600080fd5b81019080803573ffffffffffffffffffffffffffffffffffffffff169060200190929190505050611df5565b005b34801561070a57600080fd5b5061074d6004803603602081101561072157600080fd5b81019080803573ffffffffffffffffffffffffffffffffffffffff16906020019092919050505061268e565b6040518082815260200191505060405180910390f35b600260149054906101000a900460ff1681565b600260009054906101000a900473ffffffffffffffffffffffffffffffffffffffff1673ffffffffffffffffffffffffffffffffffffffff163373ffffffffffffffffffffffffffffffffffffffff1614610839576040517f08c379a000000000000000000000000000000000000000000000000000000000815260040180806020018281038252601c8152602001807f43616c6c6572206973206e6f7420636f6e7472616374206f776e65720000000081525060200191505060405180910390fd5b80600260149054906101000a900460ff16151581151514156108a6576040517f08c379a00000000000000000000000000000000000000000000000000000000081526004018080602001828103825260278152602001806130d76027913960400191505060405180910390fd5b81600260146101000a81548160ff0219169083151502179055505050565b60015481565b670de0b6b3a7640000341015610948576040517f08c379a000000000000000000000000000000000000000000000000000000000815260040180806020018281038252601c8152602001807f526567697374726174696f6e206665652069732072657175697265640000000081525060200191505060405180910390fd5b610950612f4d565b610959336127aa565b9050604051806040016040528060011515815260200182815250600560003373ffffffffffffffffffffffffffffffffffffffff1673ffffffffffffffffffffffffffffffffffffffff16815260200190815260200160002060008201518160000160006101000a81548160ff0219169083151502179055506020820151816001019060036109e9929190612f6f565b509050507f1baac8ba2b567b9999e2c2d7cdf890b818e8e8b70c67dbde09c32cffbfb1660e816040518082600360200280838360005b83811015610a3a578082015181840152602081019050610a1f565b5050505090500191505060405180910390a150565b600260149054906101000a900460ff16610ab4576040517f08c379a00000000000000000000000000000000000000000000000000000000081526004018080602001828103825260258152602001806131646025913960400191505060405180910390fd5b60008054906101000a900473ffffffffffffffffffffffffffffffffffffffff1673ffffffffffffffffffffffffffffffffffffffff166361dba32a336040518263ffffffff1660e01b8152600401808273ffffffffffffffffffffffffffffffffffffffff16815260200191505060206040518083038186803b158015610b3b57600080fd5b505afa158015610b4f573d6000803e3d6000fd5b505050506040513d6020811015610b6557600080fd5b8101908080519060200190929190505050610bcb576040517f08c379a00000000000000000000000000000000000000000000000000000000081526004018080602001828103825260458152602001806130fe6045913960600191505060405180910390fd5b60008054906101000a900473ffffffffffffffffffffffffffffffffffffffff1673ffffffffffffffffffffffffffffffffffffffff16636d81d0fd8a8a8a8a8a8a8a8a8a336040518b63ffffffff1660e01b8152600401808b81526020018a81526020018060200188815260200180602001806020018573ffffffffffffffffffffffffffffffffffffffff16815260200184810384528c8c82818152602001925080828437600081840152601f19601f8201169050808301925050508481038352898982818152602001925080828437600081840152601f19601f8201169050808301925050508481038252878782818152602001925080828437600081840152601f19601f8201169050808301925050509d5050505050505050505050505050600060405180830381600087803b158015610d0857600080fd5b505af1158015610d1c573d6000803e3d6000fd5b505050507fa19f9e72ccb76a7c7fd8d5417c7aa820e53f8a4f6d4efd8fb0cf5363d4a056e1878784848c6040518080602001806020018481526020018381038352888882818152602001925080828437600081840152601f19601f8201169050808301925050508381038252868682818152602001925080828437600081840152601f19601f82011690508083019250505097505050505050505060405180910390a1505050505050505050565b600260149054906101000a900460ff16610e2f576040517f08c379a00000000000000000000000000000000000000000000000000000000081526004018080602001828103825260258152602001806131646025913960400191505060405180910390fd5b60008054906101000a900473ffffffffffffffffffffffffffffffffffffffff1673ffffffffffffffffffffffffffffffffffffffff16630c11dedd336040518263ffffffff1660e01b8152600401808273ffffffffffffffffffffffffffffffffffffffff168152602001915050600060405180830381600087803b158015610eb857600080fd5b505af1158015610ecc573d6000803e3d6000fd5b505050507f2cfcdb8597325a890a457a046fc613ce95ce7a2699d76f21d70b1ac2b896880333604051808273ffffffffffffffffffffffffffffffffffffffff16815260200191505060405180910390a1565b610f27612f4d565b600560003373ffffffffffffffffffffffffffffffffffffffff1673ffffffffffffffffffffffffffffffffffffffff16815260200190815260200160002060000160009054906101000a900460ff16610fe9576040517f08c379a000000000000000000000000000000000000000000000000000000000815260040180806020018281038252601b8152602001807f4e6f74207265676973746572656420617320616e206f7261636c65000000000081525060200191505060405180910390fd5b600560003373ffffffffffffffffffffffffffffffffffffffff1673ffffffffffffffffffffffffffffffffffffffff168152602001908152602001600020600101600380602002604051908101604052809291908260038015611088576020028201916000905b82829054906101000a900460ff1660ff16815260200190600101906020826000010492830192600103820291508084116110515790505b5050505050905090565b670de0b6b3a764000081565b8660ff16600560003373ffffffffffffffffffffffffffffffffffffffff1673ffffffffffffffffffffffffffffffffffffffff1681526020019081526020016000206001016000600381106110f057fe5b602091828204019190069054906101000a900460ff1660ff16148061117d57508660ff16600560003373ffffffffffffffffffffffffffffffffffffffff1673ffffffffffffffffffffffffffffffffffffffff16815260200190815260200160002060010160016003811061116257fe5b602091828204019190069054906101000a900460ff1660ff16145b806111f057508660ff16600560003373ffffffffffffffffffffffffffffffffffffffff1673ffffffffffffffffffffffffffffffffffffffff1681526020019081526020016000206001016002600381106111d557fe5b602091828204019190069054906101000a900460ff1660ff16145b611245576040517f08c379a00000000000000000000000000000000000000000000000000000000081526004018080602001828103825260238152602001806132a56023913960400191505060405180910390fd5b60006112548787878787612936565b90506006600082815260200190815260200160002060000160149054906101000a900460ff166112cf576040517f08c379a00000000000000000000000000000000000000000000000000000000081526004018080602001828103825260618152602001806131896061913960800191505060405180910390fd5b6006600082815260200190815260200160002060010160008360ff1660ff168152602001908152602001600020339080600181540180825580915050600190039060005260206000200160009091909190916101000a81548173ffffffffffffffffffffffffffffffffffffffff021916908373ffffffffffffffffffffffffffffffffffffffff1602179055507ff3859e8d503be3ee71ca22e4e427ccdef876492280a41f401905169aa159d4d08787878787876040518080602001806020018581526020018460ff1681526020018381038352898982818152602001925080828437600081840152601f19601f8201169050808301925050508381038252878782818152602001925080828437600081840152601f19601f8201169050808301925050509850505050505050505060405180910390a1600360ff166006600083815260200190815260200160002060010160008460ff1660ff16815260200190815260200160002080549050141561152b5760006006600083815260200190815260200160002060000160146101000a81548160ff0219169083151502179055507ff08215e5ada4250ddb2d501789b7424297e2fbda92f1679e33c0939333baa3298787878787876040518080602001806020018581526020018460ff1681526020018381038352898982818152602001925080828437600081840152601f19601f8201169050808301925050508381038252878782818152602001925080828437600081840152601f19601f8201169050808301925050509850505050505050505060405180910390a161152a87878787878761298c565b5b5050505050505050565b600061154033612b4b565b905060006115518787878787612936565b90506000600660008381526020019081526020016000209050338160000160006101000a81548173ffffffffffffffffffffffffffffffffffffffff021916908373ffffffffffffffffffffffffffffffffffffffff16021790555060018160000160146101000a81548160ff0219169083151502179055507f0576a5c4ada227bc1e5ee791ad938be16fdb15878ac1798a1a3f962795d4c509838989898989604051808760ff16815260200180602001806020018481526020018381038352888882818152602001925080828437600081840152601f19601f8201169050808301925050508381038252868682818152602001925080828437600081840152601f19601f8201169050808301925050509850505050505050505060405180910390a15050505050505050565b806000670e92596fd62900008083106116ff576040517f08c379a000000000000000000000000000000000000000000000000000000000815260040180806020018281038252601d8152602001807f56616c756520686967686572207468616e206d617820616c6c6f77656400000081525060200191505060405180910390fd5b818311611774576040517f08c379a000000000000000000000000000000000000000000000000000000000815260040180806020018281038252601c8152602001807f56616c7565206c6f776572207468616e206d696e20616c6c6f7765640000000081525060200191505060405180910390fd5b61183e8460008054906101000a900473ffffffffffffffffffffffffffffffffffffffff1673ffffffffffffffffffffffffffffffffffffffff16630829f2306117c18d8d8d8d8d612936565b6040518263ffffffff1660e01b81526004018082815260200191505060206040518083038186803b1580156117f557600080fd5b505afa158015611809573d6000803e3d6000fd5b505050506040513d602081101561181f57600080fd5b8101908080519060200190929190505050612c2590919063ffffffff16565b80341015611897576040517f08c379a00000000000000000000000000000000000000000000000000000000081526004018080602001828103825260248152602001806132816024913960400191505060405180910390fd5b6119618560008054906101000a900473ffffffffffffffffffffffffffffffffffffffff1673ffffffffffffffffffffffffffffffffffffffff16630829f2306118e48e8e8e8e8e612936565b6040518263ffffffff1660e01b81526004018082815260200191505060206040518083038186803b15801561191857600080fd5b505afa15801561192c573d6000803e3d6000fd5b505050506040513d602081101561194257600080fd5b8101908080519060200190929190505050612c2590919063ffffffff16565b600081340390503373ffffffffffffffffffffffffffffffffffffffff166108fc829081150290604051600060405180830381858888f193505050501580156119ae573d6000803e3d6000fd5b50600260149054906101000a900460ff16611a14576040517f08c379a00000000000000000000000000000000000000000000000000000000081526004018080602001828103825260258152602001806131646025913960400191505060405180910390fd5b6000611a238d8d8d8d8d612936565b905060008054906101000a900473ffffffffffffffffffffffffffffffffffffffff1673ffffffffffffffffffffffffffffffffffffffff1663ebb4ed223483611a8a6002611a7c60038f612cad90919063ffffffff16565b612d3390919063ffffffff16565b336040518563ffffffff1660e01b8152600401808481526020018381526020018273ffffffffffffffffffffffffffffffffffffffff16815260200193505050506000604051808303818588803b158015611ae457600080fd5b505af1158015611af8573d6000803e3d6000fd5b505050505050505050505050505050505050565b60066020528060005260406000206000915090508060000160009054906101000a900473ffffffffffffffffffffffffffffffffffffffff16908060000160149054906101000a900460ff16905082565b60008054906101000a900473ffffffffffffffffffffffffffffffffffffffff1673ffffffffffffffffffffffffffffffffffffffff1663c3c5a547336040518263ffffffff1660e01b8152600401808273ffffffffffffffffffffffffffffffffffffffff16815260200191505060206040518083038186803b158015611be457600080fd5b505afa158015611bf8573d6000803e3d6000fd5b505050506040513d6020811015611c0e57600080fd5b8101908080519060200190929190505050611c74576040517f08c379a000000000000000000000000000000000000000000000000000000000815260040180806020018281038252604381526020018061323e6043913960600191505060405180910390fd5b600154341015611cec576040517f08c379a00000000000000000000000000000000000000000000000000000000081526004018080602001828103825260208152602001807f4d696e696d756e2066756e64696e6720616d6f756e742069732031302045544881525060200191505060405180910390fd5b600260149054906101000a900460ff16611d51576040517f08c379a00000000000000000000000000000000000000000000000000000000081526004018080602001828103825260258152602001806131646025913960400191505060405180910390fd5b60008054906101000a900473ffffffffffffffffffffffffffffffffffffffff1673ffffffffffffffffffffffffffffffffffffffff16632302440834336040518363ffffffff1660e01b8152600401808273ffffffffffffffffffffffffffffffffffffffff1681526020019150506000604051808303818588803b158015611dda57600080fd5b505af1158015611dee573d6000803e3d6000fd5b5050505050565b600260149054906101000a900460ff16611e5a576040517f08c379a00000000000000000000000000000000000000000000000000000000081526004018080602001828103825260258152602001806131646025913960400191505060405180910390fd5b60008054906101000a900473ffffffffffffffffffffffffffffffffffffffff1673ffffffffffffffffffffffffffffffffffffffff1663c3c5a547336040518263ffffffff1660e01b8152600401808273ffffffffffffffffffffffffffffffffffffffff16815260200191505060206040518083038186803b158015611ee157600080fd5b505afa158015611ef5573d6000803e3d6000fd5b505050506040513d6020811015611f0b57600080fd5b8101908080519060200190929190505050611f71576040517f08c379a000000000000000000000000000000000000000000000000000000000815260040180806020018281038252604381526020018061323e6043913960600191505060405180910390fd5b60008054906101000a900473ffffffffffffffffffffffffffffffffffffffff1673ffffffffffffffffffffffffffffffffffffffff166361dba32a336040518263ffffffff1660e01b8152600401808273ffffffffffffffffffffffffffffffffffffffff16815260200191505060206040518083038186803b158015611ff857600080fd5b505afa15801561200c573d6000803e3d6000fd5b505050506040513d602081101561202257600080fd5b8101908080519060200190929190505050612088576040517f08c379a00000000000000000000000000000000000000000000000000000000081526004018080602001828103825260458152602001806130fe6045913960600191505060405180910390fd5b600460008054906101000a900473ffffffffffffffffffffffffffffffffffffffff1673ffffffffffffffffffffffffffffffffffffffff1663f53aa2e26040518163ffffffff1660e01b815260040160206040518083038186803b1580156120f057600080fd5b505afa158015612104573d6000803e3d6000fd5b505050506040513d602081101561211a57600080fd5b81019080805190602001909291905050501015612319573373ffffffffffffffffffffffffffffffffffffffff1660008054906101000a900473ffffffffffffffffffffffffffffffffffffffff1673ffffffffffffffffffffffffffffffffffffffff16634819cf0c6040518163ffffffff1660e01b815260040160206040518083038186803b1580156121ae57600080fd5b505afa1580156121c2573d6000803e3d6000fd5b505050506040513d60208110156121d857600080fd5b810190808051906020019092919050505073ffffffffffffffffffffffffffffffffffffffff1614612255576040517f08c379a00000000000000000000000000000000000000000000000000000000081526004018080602001828103825260548152602001806131ea6054913960600191505060405180910390fd5b60008054906101000a900473ffffffffffffffffffffffffffffffffffffffff1673ffffffffffffffffffffffffffffffffffffffff1663c7ba501882336040518363ffffffff1660e01b8152600401808373ffffffffffffffffffffffffffffffffffffffff1681526020018273ffffffffffffffffffffffffffffffffffffffff16815260200192505050600060405180830381600087803b1580156122fc57600080fd5b505af1158015612310573d6000803e3d6000fd5b5050505061268b565b6000805b600360008473ffffffffffffffffffffffffffffffffffffffff1673ffffffffffffffffffffffffffffffffffffffff16815260200190815260200160002080549050811015612425573373ffffffffffffffffffffffffffffffffffffffff16600360008573ffffffffffffffffffffffffffffffffffffffff1673ffffffffffffffffffffffffffffffffffffffff16815260200190815260200160002082815481106123c857fe5b9060005260206000200160009054906101000a900473ffffffffffffffffffffffffffffffffffffffff1673ffffffffffffffffffffffffffffffffffffffff1614156124185760019150612425565b808060010191505061231d565b50801561247d576040517f08c379a00000000000000000000000000000000000000000000000000000000081526004018080602001828103825260268152602001806130b16026913960400191505060405180910390fd5b600360008373ffffffffffffffffffffffffffffffffffffffff1673ffffffffffffffffffffffffffffffffffffffff168152602001908152602001600020339080600181540180825580915050600190039060005260206000200160009091909190916101000a81548173ffffffffffffffffffffffffffffffffffffffff021916908373ffffffffffffffffffffffffffffffffffffffff16021790555060006125288361268e565b141561268957600067ffffffffffffffff8111801561254657600080fd5b506040519080825280602002602001820160405280156125755781602001602082028036833780820191505090505b50600360008473ffffffffffffffffffffffffffffffffffffffff1673ffffffffffffffffffffffffffffffffffffffff16815260200190815260200160002090805190602001906125c8929190613009565b5060008054906101000a900473ffffffffffffffffffffffffffffffffffffffff1673ffffffffffffffffffffffffffffffffffffffff1663c7ba501883336040518363ffffffff1660e01b8152600401808373ffffffffffffffffffffffffffffffffffffffff1681526020018273ffffffffffffffffffffffffffffffffffffffff16815260200192505050600060405180830381600087803b15801561267057600080fd5b505af1158015612684573d6000803e3d6000fd5b505050505b505b50565b600080600360008473ffffffffffffffffffffffffffffffffffffffff1673ffffffffffffffffffffffffffffffffffffffff168152602001908152602001600020805490509050600061278c600260008054906101000a900473ffffffffffffffffffffffffffffffffffffffff1673ffffffffffffffffffffffffffffffffffffffff1663f53aa2e26040518163ffffffff1660e01b815260040160206040518083038186803b15801561274357600080fd5b505afa158015612757573d6000803e3d6000fd5b505050506040513d602081101561276d57600080fd5b8101908080519060200190929190505050612d3390919063ffffffff16565b90506127a18282612d7d90919063ffffffff16565b92505050919050565b6127b2612f4d565b6127ba612f4d565b6127c383612b4b565b816000600381106127d057fe5b602002019060ff16908160ff1681525050806000600381106127ee57fe5b60200201518160016003811061280057fe5b602002019060ff16908160ff16815250505b8060006003811061281f57fe5b602002015160ff168160016003811061283457fe5b602002015160ff16141561286e5761284b83612b4b565b8160016003811061285857fe5b602002019060ff16908160ff1681525050612812565b8060016003811061287b57fe5b60200201518160026003811061288d57fe5b602002019060ff16908160ff16815250505b806000600381106128ac57fe5b602002015160ff16816002600381106128c157fe5b602002015160ff1614806128fc5750806001600381106128dd57fe5b602002015160ff16816002600381106128f257fe5b602002015160ff16145b1561292d5761290a83612b4b565b8160026003811061291757fe5b602002019060ff16908160ff168152505061289f565b80915050919050565b600085858585856040516020018086868082843780830192505050848480828437808301925050508281526020019550505050505060405160208183030381529060405280519060200120905095945050505050565b600260149054906101000a900460ff166129f1576040517f08c379a00000000000000000000000000000000000000000000000000000000081526004018080602001828103825260258152602001806131646025913960400191505060405180910390fd5b6000612a008787878787612936565b905060008054906101000a900473ffffffffffffffffffffffffffffffffffffffff1673ffffffffffffffffffffffffffffffffffffffff16630f9429b782846040518363ffffffff1660e01b8152600401808381526020018260ff16815260200192505050600060405180830381600087803b158015612a8057600080fd5b505af1158015612a94573d6000803e3d6000fd5b505050507f034d3cd105b9813e396868830ab985c576b7ac59b402428c8ae3391b56ce43498787878787876040518080602001806020018581526020018460ff1681526020018381038352898982818152602001925080828437600081840152601f19601f8201169050808301925050508381038252878782818152602001925080828437600081840152601f19601f8201169050808301925050509850505050505050505060405180910390a150505050505050565b600080600a905060008160ff166004600081819054906101000a900460ff168092919060010191906101000a81548160ff021916908360ff16021790555060ff1643034085604051602001808381526020018273ffffffffffffffffffffffffffffffffffffffff1660601b8152601401925050506040516020818303038152906040528051906020012060001c81612be057fe5b06905060fa600460009054906101000a900460ff1660ff161115612c1b576000600460006101000a81548160ff021916908360ff1602179055505b8092505050919050565b600080828401905083811015612ca3576040517f08c379a000000000000000000000000000000000000000000000000000000000815260040180806020018281038252601b8152602001807f536166654d6174683a206164646974696f6e206f766572666c6f77000000000081525060200191505060405180910390fd5b8091505092915050565b600080831415612cc05760009050612d2d565b6000828402905082848281612cd157fe5b0414612d28576040517f08c379a00000000000000000000000000000000000000000000000000000000081526004018080602001828103825260218152602001806131436021913960400191505060405180910390fd5b809150505b92915050565b6000612d7583836040518060400160405280601a81526020017f536166654d6174683a206469766973696f6e206279207a65726f000000000000815250612dc7565b905092915050565b6000612dbf83836040518060400160405280601e81526020017f536166654d6174683a207375627472616374696f6e206f766572666c6f770000815250612e8d565b905092915050565b60008083118290612e73576040517f08c379a00000000000000000000000000000000000000000000000000000000081526004018080602001828103825283818151815260200191508051906020019080838360005b83811015612e38578082015181840152602081019050612e1d565b50505050905090810190601f168015612e655780820380516001836020036101000a031916815260200191505b509250505060405180910390fd5b506000838581612e7f57fe5b049050809150509392505050565b6000838311158290612f3a576040517f08c379a00000000000000000000000000000000000000000000000000000000081526004018080602001828103825283818151815260200191508051906020019080838360005b83811015612eff578082015181840152602081019050612ee4565b50505050905090810190601f168015612f2c5780820380516001836020036101000a031916815260200191505b509250505060405180910390fd5b5060008385039050809150509392505050565b6040518060600160405280600390602082028036833780820191505090505090565b826003601f01602090048101928215612ff85791602002820160005b83821115612fc957835183826101000a81548160ff021916908360ff1602179055509260200192600101602081600001049283019260010302612f8b565b8015612ff65782816101000a81549060ff0219169055600101602081600001049283019260010302612fc9565b505b5090506130059190613093565b5090565b828054828255906000526020600020908101928215613082579160200282015b828111156130815782518260006101000a81548173ffffffffffffffffffffffffffffffffffffffff021916908373ffffffffffffffffffffffffffffffffffffffff16021790555091602001919060010190613029565b5b50905061308f9190613093565b5090565b5b808211156130ac576000816000905550600101613094565b509056fe43616c6c65722063616e6e6f742063616c6c20746869732066756e6374696f6e207477696365436f6e747261637420616c726561647920696e20746865207374617465207265717565737465644169726c696e65206d7573742070726f766964652066756e64696e67206265666f7265206265696e672061626c6520746f20706572666f726d207468697320616374696f6e536166654d6174683a206d756c7469706c69636174696f6e206f766572666c6f77436f6e74726163742069732063757272656e746c79206e6f74206f7065726174696f6e616c466c69676874206f722074696d657374616d7020646f206e6f74206d61746368206f7261636c6520726571756573742e204f72207265717565737420697320636c6f7365642028656e6f75676820726573706f6e736573207265636569766564294c657373207468616e2034206169726c696e657320726567697374657265643a206f6e6c79206669727374206169726c696e6520726567697374657265642063616e207265676973746572206e6577206f6e65734169726c696e65206d7573742062652072656769737465726564206265666f7265206265696e672061626c6520746f20706572666f726d207468697320616374696f6e56616c75652073656e7420646f6573206e6f7420636f7665722074686520707269636521496e64657820646f6573206e6f74206d61746368206f7261636c652072657175657374a264697066735822122034b022e566381bb9ee32d076056d256bf3f586db988eb17d0f37f7e2aa8bf1ee64736f6c63430007030033",
  "linkReferences": {},
  "deployedLinkReferences": {}
}