{
  "_format": "hh-sol-artifact-1",
  "contractName": "FlightSuretyData",
  "sourceName": "src/sol/Data.sol",
  "abi": [
    {
      "inputs": [
        {
          "internalType": "address",
          "name": "_firstAirline",
          "type": "address"
        }
      ],
      "stateMutability": "nonpayable",
      "type": "constructor"
    },
    {
      "anonymous": false,
      "inputs": [
        {
          "indexed": false,
          "internalType": "address",
          "name": "origin",
          "type": "address"
        },
        {
          "indexed": false,
          "internalType": "address",
          "name": "newAirline",
          "type": "address"
        }
      ],
      "name": "AirlineRegistered",
      "type": "event"
    },
    {
      "anonymous": false,
      "inputs": [
        {
          "indexed": false,
          "internalType": "address",
          "name": "passenger",
          "type": "address"
        },
        {
          "indexed": false,
          "internalType": "uint256",
          "name": "amount",
          "type": "uint256"
        }
      ],
      "name": "Credited",
      "type": "event"
    },
    {
      "anonymous": false,
      "inputs": [
        {
          "indexed": false,
          "internalType": "address",
          "name": "airline",
          "type": "address"
        }
      ],
      "name": "Funded",
      "type": "event"
    },
    {
      "anonymous": false,
      "inputs": [
        {
          "indexed": false,
          "internalType": "address",
          "name": "recipient",
          "type": "address"
        },
        {
          "indexed": false,
          "internalType": "uint256",
          "name": "amount",
          "type": "uint256"
        }
      ],
      "name": "Paid",
      "type": "event"
    },
    {
      "inputs": [
        {
          "internalType": "address",
          "name": "",
          "type": "address"
        }
      ],
      "name": "airlines",
      "outputs": [
        {
          "internalType": "bool",
          "name": "registered",
          "type": "bool"
        },
        {
          "internalType": "bool",
          "name": "funded",
          "type": "bool"
        }
      ],
      "stateMutability": "view",
      "type": "function"
    },
    {
      "inputs": [
        {
          "internalType": "address",
          "name": "callerAddress",
          "type": "address"
        }
      ],
      "name": "authorizeCaller",
      "outputs": [],
      "stateMutability": "nonpayable",
      "type": "function"
    },
    {
      "inputs": [
        {
          "internalType": "address",
          "name": "",
          "type": "address"
        }
      ],
      "name": "authorizedCallers",
      "outputs": [
        {
          "internalType": "bool",
          "name": "",
          "type": "bool"
        }
      ],
      "stateMutability": "view",
      "type": "function"
    },
    {
      "inputs": [
        {
          "internalType": "bytes32",
          "name": "flightKey",
          "type": "bytes32"
        },
        {
          "internalType": "uint256",
          "name": "amount",
          "type": "uint256"
        },
        {
          "internalType": "address",
          "name": "originAddress",
          "type": "address"
        }
      ],
      "name": "book",
      "outputs": [],
      "stateMutability": "payable",
      "type": "function"
    },
    {
      "inputs": [],
      "name": "firstAirline",
      "outputs": [
        {
          "internalType": "address",
          "name": "",
          "type": "address"
        }
      ],
      "stateMutability": "view",
      "type": "function"
    },
    {
      "inputs": [
        {
          "internalType": "uint256",
          "name": "",
          "type": "uint256"
        }
      ],
      "name": "flightKeys",
      "outputs": [
        {
          "internalType": "bytes32",
          "name": "",
          "type": "bytes32"
        }
      ],
      "stateMutability": "view",
      "type": "function"
    },
    {
      "inputs": [
        {
          "internalType": "bytes32",
          "name": "",
          "type": "bytes32"
        }
      ],
      "name": "flights",
      "outputs": [
        {
          "internalType": "bool",
          "name": "isRegistered",
          "type": "bool"
        },
        {
          "internalType": "uint8",
          "name": "statusCode",
          "type": "uint8"
        },
        {
          "internalType": "uint256",
          "name": "takeOff",
          "type": "uint256"
        },
        {
          "internalType": "uint256",
          "name": "landing",
          "type": "uint256"
        },
        {
          "internalType": "address",
          "name": "airline",
          "type": "address"
        },
        {
          "internalType": "string",
          "name": "flightRef",
          "type": "string"
        },
        {
          "internalType": "uint256",
          "name": "price",
          "type": "uint256"
        },
        {
          "internalType": "string",
          "name": "from",
          "type": "string"
        },
        {
          "internalType": "string",
          "name": "to",
          "type": "string"
        }
      ],
      "stateMutability": "view",
      "type": "function"
    },
    {
      "inputs": [
        {
          "internalType": "address",
          "name": "originAddress",
          "type": "address"
        }
      ],
      "name": "fund",
      "outputs": [],
      "stateMutability": "payable",
      "type": "function"
    },
    {
      "inputs": [
        {
          "internalType": "string",
          "name": "flightRef",
          "type": "string"
        },
        {
          "internalType": "string",
          "name": "destination",
          "type": "string"
        },
        {
          "internalType": "uint256",
          "name": "timestamp",
          "type": "uint256"
        }
      ],
      "name": "getFlightKey",
      "outputs": [
        {
          "internalType": "bytes32",
          "name": "",
          "type": "bytes32"
        }
      ],
      "stateMutability": "pure",
      "type": "function"
    },
    {
      "inputs": [
        {
          "internalType": "bytes32",
          "name": "flightKey",
          "type": "bytes32"
        }
      ],
      "name": "getFlightPrice",
      "outputs": [
        {
          "internalType": "uint256",
          "name": "price",
          "type": "uint256"
        }
      ],
      "stateMutability": "view",
      "type": "function"
    },
    {
      "inputs": [
        {
          "internalType": "address",
          "name": "airlineAddress",
          "type": "address"
        }
      ],
      "name": "hasFunded",
      "outputs": [
        {
          "internalType": "bool",
          "name": "_hasFunded",
          "type": "bool"
        }
      ],
      "stateMutability": "view",
      "type": "function"
    },
    {
      "inputs": [],
      "name": "indexFlightKeys",
      "outputs": [
        {
          "internalType": "uint256",
          "name": "",
          "type": "uint256"
        }
      ],
      "stateMutability": "view",
      "type": "function"
    },
    {
      "inputs": [
        {
          "internalType": "address",
          "name": "airlineAddress",
          "type": "address"
        }
      ],
      "name": "isRegistered",
      "outputs": [
        {
          "internalType": "bool",
          "name": "_registered",
          "type": "bool"
        }
      ],
      "stateMutability": "view",
      "type": "function"
    },
    {
      "inputs": [],
      "name": "operational",
      "outputs": [
        {
          "internalType": "bool",
          "name": "",
          "type": "bool"
        }
      ],
      "stateMutability": "view",
      "type": "function"
    },
    {
      "inputs": [
        {
          "internalType": "string",
          "name": "flightRef",
          "type": "string"
        },
        {
          "internalType": "string",
          "name": "destination",
          "type": "string"
        },
        {
          "internalType": "uint256",
          "name": "timestamp",
          "type": "uint256"
        },
        {
          "internalType": "address",
          "name": "passenger",
          "type": "address"
        }
      ],
      "name": "paxOnFlight",
      "outputs": [
        {
          "internalType": "bool",
          "name": "onFlight",
          "type": "bool"
        }
      ],
      "stateMutability": "view",
      "type": "function"
    },
    {
      "inputs": [
        {
          "internalType": "address payable",
          "name": "originAddress",
          "type": "address"
        }
      ],
      "name": "pay",
      "outputs": [],
      "stateMutability": "nonpayable",
      "type": "function"
    },
    {
      "inputs": [
        {
          "internalType": "bytes32",
          "name": "flightKey",
          "type": "bytes32"
        },
        {
          "internalType": "uint8",
          "name": "statusCode",
          "type": "uint8"
        }
      ],
      "name": "processFlightStatus",
      "outputs": [],
      "stateMutability": "nonpayable",
      "type": "function"
    },
    {
      "inputs": [
        {
          "internalType": "address",
          "name": "airlineAddress",
          "type": "address"
        },
        {
          "internalType": "address",
          "name": "originAddress",
          "type": "address"
        }
      ],
      "name": "registerAirline",
      "outputs": [],
      "stateMutability": "nonpayable",
      "type": "function"
    },
    {
      "inputs": [
        {
          "internalType": "uint256",
          "name": "_takeOff",
          "type": "uint256"
        },
        {
          "internalType": "uint256",
          "name": "_landing",
          "type": "uint256"
        },
        {
          "internalType": "string",
          "name": "_flight",
          "type": "string"
        },
        {
          "internalType": "uint256",
          "name": "_price",
          "type": "uint256"
        },
        {
          "internalType": "string",
          "name": "_from",
          "type": "string"
        },
        {
          "internalType": "string",
          "name": "_to",
          "type": "string"
        },
        {
          "internalType": "address",
          "name": "originAddress",
          "type": "address"
        }
      ],
      "name": "registerFlight",
      "outputs": [],
      "stateMutability": "nonpayable",
      "type": "function"
    },
    {
      "inputs": [],
      "name": "registeredAirlinesCount",
      "outputs": [
        {
          "internalType": "uint256",
          "name": "",
          "type": "uint256"
        }
      ],
      "stateMutability": "view",
      "type": "function"
    },
    {
      "inputs": [
        {
          "internalType": "bool",
          "name": "mode",
          "type": "bool"
        }
      ],
      "name": "setOperatingStatus",
      "outputs": [],
      "stateMutability": "nonpayable",
      "type": "function"
    },
    {
      "inputs": [
        {
          "internalType": "string",
          "name": "flightRef",
          "type": "string"
        },
        {
          "internalType": "string",
          "name": "destination",
          "type": "string"
        },
        {
          "internalType": "uint256",
          "name": "timestamp",
          "type": "uint256"
        },
        {
          "internalType": "address",
          "name": "passenger",
          "type": "address"
        }
      ],
      "name": "subscribedInsurance",
      "outputs": [
        {
          "internalType": "uint256",
          "name": "amount",
          "type": "uint256"
        }
      ],
      "stateMutability": "view",
      "type": "function"
    },
    {
      "inputs": [
        {
          "internalType": "address",
          "name": "",
          "type": "address"
        }
      ],
      "name": "withdrawals",
      "outputs": [
        {
          "internalType": "uint256",
          "name": "",
          "type": "uint256"
        }
      ],
      "stateMutability": "view",
      "type": "function"
    },
    {
      "stateMutability": "payable",
      "type": "receive"
    }
  ],
  "bytecode": "0x60806040526001600060146101000a81548160ff021916908315150217905550600060085534801561003057600080fd5b50604051612d1b380380612d1b8339818101604052602081101561005357600080fd5b8101908080519060200190929190505050336000806101000a81548173ffffffffffffffffffffffffffffffffffffffff021916908373ffffffffffffffffffffffffffffffffffffffff16021790555080600460006101000a81548173ffffffffffffffffffffffffffffffffffffffff021916908373ffffffffffffffffffffffffffffffffffffffff1602179055506001600381905550600160026000600460009054906101000a900473ffffffffffffffffffffffffffffffffffffffff1673ffffffffffffffffffffffffffffffffffffffff1673ffffffffffffffffffffffffffffffffffffffff16815260200190815260200160002060000160006101000a81548160ff02191690831515021790555050612ba18061017a6000396000f3fe6080604052600436106101445760003560e01c8063536fff6c116100b6578063bf32cbe41161006f578063bf32cbe414610b7f578063c3c5a54714610baa578063c7ba501814610c11578063ebb4ed2214610c82578063f53aa2e214610cda578063f81945c314610d055761020d565b8063536fff6c146106ca57806361dba32a146107315780636d81d0fd146107985780637a9262a214610906578063af6c6da91461096b578063b75ad60214610a645761020d565b806320c5375e1161010857806320c5375e1461036457806323024408146105355780632c388d5d146105795780633d21d827146105ca57806341684769146106195780634819cf0c146106895761020d565b80630829f230146102125780630a401086146102615780630c11dedd1461028e5780630f9429b7146102df578063110466ed146103275761020d565b3661020d5760011515600160003373ffffffffffffffffffffffffffffffffffffffff1673ffffffffffffffffffffffffffffffffffffffff16815260200190815260200160002060009054906101000a900460ff161515146101f2576040517f08c379a000000000000000000000000000000000000000000000000000000000815260040180806020018281038252602c815260200180612aab602c913960400191505060405180910390fd5b6000803690501461020257600080fd5b61020b33610e1e565b005b600080fd5b34801561021e57600080fd5b5061024b6004803603602081101561023557600080fd5b8101908080359060200190929190505050610fd7565b6040518082815260200191505060405180910390f35b34801561026d57600080fd5b50610276610ff7565b60405180821515815260200191505060405180910390f35b34801561029a57600080fd5b506102dd600480360360208110156102b157600080fd5b81019080803573ffffffffffffffffffffffffffffffffffffffff16906020019092919050505061100a565b005b3480156102eb57600080fd5b506103256004803603604081101561030257600080fd5b8101908080359060200190929190803560ff1690602001909291905050506112d9565b005b34801561033357600080fd5b506103626004803603602081101561034a57600080fd5b8101908080351515906020019092919050505061154f565b005b34801561037057600080fd5b5061039d6004803603602081101561038757600080fd5b810190808035906020019092919050505061169b565b604051808a151581526020018960ff1681526020018881526020018781526020018673ffffffffffffffffffffffffffffffffffffffff168152602001806020018581526020018060200180602001848103845288818151815260200191508051906020019080838360005b83811015610424578082015181840152602081019050610409565b50505050905090810190601f1680156104515780820380516001836020036101000a031916815260200191505b50848103835286818151815260200191508051906020019080838360005b8381101561048a57808201518184015260208101905061046f565b50505050905090810190601f1680156104b75780820380516001836020036101000a031916815260200191505b50848103825285818151815260200191508051906020019080838360005b838110156104f05780820151818401526020810190506104d5565b50505050905090810190601f16801561051d5780820380516001836020036101000a031916815260200191505b509c5050505050505050505050505060405180910390f35b6105776004803603602081101561054b57600080fd5b81019080803573ffffffffffffffffffffffffffffffffffffffff169060200190929190505050610e1e565b005b34801561058557600080fd5b506105c86004803603602081101561059c57600080fd5b81019080803573ffffffffffffffffffffffffffffffffffffffff1690602001909291905050506118eb565b005b3480156105d657600080fd5b50610603600480360360208110156105ed57600080fd5b8101908080359060200190929190505050611a6b565b6040518082815260200191505060405180910390f35b34801561062557600080fd5b506106686004803603602081101561063c57600080fd5b81019080803573ffffffffffffffffffffffffffffffffffffffff169060200190929190505050611a8c565b60405180831515815260200182151581526020019250505060405180910390f35b34801561069557600080fd5b5061069e611aca565b604051808273ffffffffffffffffffffffffffffffffffffffff16815260200191505060405180910390f35b3480156106d657600080fd5b50610719600480360360208110156106ed57600080fd5b81019080803573ffffffffffffffffffffffffffffffffffffffff169060200190929190505050611af0565b60405180821515815260200191505060405180910390f35b34801561073d57600080fd5b506107806004803603602081101561075457600080fd5b81019080803573ffffffffffffffffffffffffffffffffffffffff169060200190929190505050611b10565b60405180821515815260200191505060405180910390f35b3480156107a457600080fd5b50610904600480360360e08110156107bb57600080fd5b810190808035906020019092919080359060200190929190803590602001906401000000008111156107ec57600080fd5b8201836020820111156107fe57600080fd5b8035906020019184600183028401116401000000008311171561082057600080fd5b9091929391929390803590602001909291908035906020019064010000000081111561084b57600080fd5b82018360208201111561085d57600080fd5b8035906020019184600183028401116401000000008311171561087f57600080fd5b9091929391929390803590602001906401000000008111156108a057600080fd5b8201836020820111156108b257600080fd5b803590602001918460018302840111640100000000831117156108d457600080fd5b9091929391929390803573ffffffffffffffffffffffffffffffffffffffff169060200190929190505050611b69565b005b34801561091257600080fd5b506109556004803603602081101561092957600080fd5b81019080803573ffffffffffffffffffffffffffffffffffffffff169060200190929190505050611ea2565b6040518082815260200191505060405180910390f35b34801561097757600080fd5b50610a4e6004803603606081101561098e57600080fd5b81019080803590602001906401000000008111156109ab57600080fd5b8201836020820111156109bd57600080fd5b803590602001918460018302840111640100000000831117156109df57600080fd5b909192939192939080359060200190640100000000811115610a0057600080fd5b820183602082011115610a1257600080fd5b80359060200191846001830284011164010000000083111715610a3457600080fd5b909192939192939080359060200190929190505050611eba565b6040518082815260200191505060405180910390f35b348015610a7057600080fd5b50610b6760048036036080811015610a8757600080fd5b8101908080359060200190640100000000811115610aa457600080fd5b820183602082011115610ab657600080fd5b80359060200191846001830284011164010000000083111715610ad857600080fd5b909192939192939080359060200190640100000000811115610af957600080fd5b820183602082011115610b0b57600080fd5b80359060200191846001830284011164010000000083111715610b2d57600080fd5b909192939192939080359060200190929190803573ffffffffffffffffffffffffffffffffffffffff169060200190929190505050611f10565b60405180821515815260200191505060405180910390f35b348015610b8b57600080fd5b50610b94611f90565b6040518082815260200191505060405180910390f35b348015610bb657600080fd5b50610bf960048036036020811015610bcd57600080fd5b81019080803573ffffffffffffffffffffffffffffffffffffffff169060200190929190505050611f96565b60405180821515815260200191505060405180910390f35b348015610c1d57600080fd5b50610c8060048036036040811015610c3457600080fd5b81019080803573ffffffffffffffffffffffffffffffffffffffff169060200190929190803573ffffffffffffffffffffffffffffffffffffffff169060200190929190505050611fef565b005b610cd860048036036060811015610c9857600080fd5b810190808035906020019092919080359060200190929190803573ffffffffffffffffffffffffffffffffffffffff1690602001909291905050506121d9565b005b348015610ce657600080fd5b50610cef61250b565b6040518082815260200191505060405180910390f35b348015610d1157600080fd5b50610e0860048036036080811015610d2857600080fd5b8101908080359060200190640100000000811115610d4557600080fd5b820183602082011115610d5757600080fd5b80359060200191846001830284011164010000000083111715610d7957600080fd5b909192939192939080359060200190640100000000811115610d9a57600080fd5b820183602082011115610dac57600080fd5b80359060200191846001830284011164010000000083111715610dce57600080fd5b909192939192939080359060200190929190803573ffffffffffffffffffffffffffffffffffffffff169060200190929190505050612511565b6040518082815260200191505060405180910390f35b600060149054906101000a900460ff16610e83576040517f08c379a0000000000000000000000000000000000000000000000000000000008152600401808060200182810382526025815260200180612b216025913960400191505060405180910390fd5b60011515600160003373ffffffffffffffffffffffffffffffffffffffff1673ffffffffffffffffffffffffffffffffffffffff16815260200190815260200160002060009054906101000a900460ff16151514610f2c576040517f08c379a000000000000000000000000000000000000000000000000000000000815260040180806020018281038252602c815260200180612aab602c913960400191505060405180910390fd5b6001600260008373ffffffffffffffffffffffffffffffffffffffff1673ffffffffffffffffffffffffffffffffffffffff16815260200190815260200160002060000160016101000a81548160ff0219169083151502179055507fb436c2bf863ccd7b8f63171201efd4792066b4ce8e543dde9c3e9e9ab98e216c81604051808273ffffffffffffffffffffffffffffffffffffffff16815260200191505060405180910390a150565b600060066000838152602001908152602001600020600501549050919050565b600060149054906101000a900460ff1681565b600060149054906101000a900460ff1661106f576040517f08c379a0000000000000000000000000000000000000000000000000000000008152600401808060200182810382526025815260200180612b216025913960400191505060405180910390fd5b60011515600160003373ffffffffffffffffffffffffffffffffffffffff1673ffffffffffffffffffffffffffffffffffffffff16815260200190815260200160002060009054906101000a900460ff16151514611118576040517f08c379a000000000000000000000000000000000000000000000000000000000815260040180806020018281038252602c815260200180612aab602c913960400191505060405180910390fd5b6000600960008373ffffffffffffffffffffffffffffffffffffffff1673ffffffffffffffffffffffffffffffffffffffff16815260200190815260200160002054116111b0576040517f08c379a000000000000000000000000000000000000000000000000000000000815260040180806020018281038252602b815260200180612a80602b913960400191505060405180910390fd5b6000600960008373ffffffffffffffffffffffffffffffffffffffff1673ffffffffffffffffffffffffffffffffffffffff1681526020019081526020016000205490506000600960008473ffffffffffffffffffffffffffffffffffffffff1673ffffffffffffffffffffffffffffffffffffffff168152602001908152602001600020819055508173ffffffffffffffffffffffffffffffffffffffff166108fc829081150290604051600060405180830381858888f1935050505015801561127f573d6000803e3d6000fd5b507f737c69225d647e5994eab1a6c301bf6d9232beb2759ae1e27a8966b4732bc4898282604051808373ffffffffffffffffffffffffffffffffffffffff1681526020018281526020019250505060405180910390a15050565b816006600082815260200190815260200160002060000160009054906101000a900460ff16611370576040517f08c379a000000000000000000000000000000000000000000000000000000000815260040180806020018281038252601a8152602001807f5468697320666c6967687420646f6573206e6f7420657869737400000000000081525060200191505060405180910390fd5b600060149054906101000a900460ff166113d5576040517f08c379a0000000000000000000000000000000000000000000000000000000008152600401808060200182810382526025815260200180612b216025913960400191505060405180910390fd5b60011515600160003373ffffffffffffffffffffffffffffffffffffffff1673ffffffffffffffffffffffffffffffffffffffff16815260200190815260200160002060009054906101000a900460ff1615151461147e576040517f08c379a000000000000000000000000000000000000000000000000000000000815260040180806020018281038252602c815260200180612aab602c913960400191505060405180910390fd5b8260006006600083815260200190815260200160002060000160019054906101000a900460ff1660ff16146114fe576040517f08c379a0000000000000000000000000000000000000000000000000000000008152600401808060200182810382526026815260200180612b466026913960400191505060405180910390fd5b6000600660008681526020019081526020016000209050838160000160016101000a81548160ff021916908360ff16021790555060148460ff1614156115485761154785612584565b5b5050505050565b60008054906101000a900473ffffffffffffffffffffffffffffffffffffffff1673ffffffffffffffffffffffffffffffffffffffff163373ffffffffffffffffffffffffffffffffffffffff1614611610576040517f08c379a000000000000000000000000000000000000000000000000000000000815260040180806020018281038252601c8152602001807f43616c6c6572206973206e6f7420636f6e7472616374206f776e65720000000081525060200191505060405180910390fd5b80600060149054906101000a900460ff161515811515141561167d576040517f08c379a0000000000000000000000000000000000000000000000000000000008152600401808060200182810382526027815260200180612a596027913960400191505060405180910390fd5b81600060146101000a81548160ff0219169083151502179055505050565b60066020528060005260406000206000915090508060000160009054906101000a900460ff16908060000160019054906101000a900460ff16908060010154908060020154908060030160009054906101000a900473ffffffffffffffffffffffffffffffffffffffff1690806004018054600181600116156101000203166002900480601f01602080910402602001604051908101604052809291908181526020018280546001816001161561010002031660029004801561179f5780601f106117745761010080835404028352916020019161179f565b820191906000526020600020905b81548152906001019060200180831161178257829003601f168201915b505050505090806005015490806006018054600181600116156101000203166002900480601f0160208091040260200160405190810160405280929190818152602001828054600181600116156101000203166002900480156118435780601f1061181857610100808354040283529160200191611843565b820191906000526020600020905b81548152906001019060200180831161182657829003601f168201915b505050505090806007018054600181600116156101000203166002900480601f0160208091040260200160405190810160405280929190818152602001828054600181600116156101000203166002900480156118e15780601f106118b6576101008083540402835291602001916118e1565b820191906000526020600020905b8154815290600101906020018083116118c457829003601f168201915b5050505050905089565b60008054906101000a900473ffffffffffffffffffffffffffffffffffffffff1673ffffffffffffffffffffffffffffffffffffffff163373ffffffffffffffffffffffffffffffffffffffff16146119ac576040517f08c379a000000000000000000000000000000000000000000000000000000000815260040180806020018281038252601c8152602001807f43616c6c6572206973206e6f7420636f6e7472616374206f776e65720000000081525060200191505060405180910390fd5b600060149054906101000a900460ff16611a11576040517f08c379a0000000000000000000000000000000000000000000000000000000008152600401808060200182810382526025815260200180612b216025913960400191505060405180910390fd5b60018060008373ffffffffffffffffffffffffffffffffffffffff1673ffffffffffffffffffffffffffffffffffffffff16815260200190815260200160002060006101000a81548160ff02191690831515021790555050565b60078181548110611a7857fe5b906000526020600020016000915090505481565b60026020528060005260406000206000915090508060000160009054906101000a900460ff16908060000160019054906101000a900460ff16905082565b600460009054906101000a900473ffffffffffffffffffffffffffffffffffffffff1681565b60016020528060005260406000206000915054906101000a900460ff1681565b6000600260008373ffffffffffffffffffffffffffffffffffffffff1673ffffffffffffffffffffffffffffffffffffffff16815260200190815260200160002060000160019054906101000a900460ff169050919050565b600060149054906101000a900460ff16611bce576040517f08c379a0000000000000000000000000000000000000000000000000000000008152600401808060200182810382526025815260200180612b216025913960400191505060405180910390fd5b60011515600160003373ffffffffffffffffffffffffffffffffffffffff1673ffffffffffffffffffffffffffffffffffffffff16815260200190815260200160002060009054906101000a900460ff16151514611c77576040517f08c379a000000000000000000000000000000000000000000000000000000000815260040180806020018281038252602c815260200180612aab602c913960400191505060405180910390fd5b428a11611ccf576040517f08c379a0000000000000000000000000000000000000000000000000000000008152600401808060200182810382526024815260200180612afd6024913960400191505060405180910390fd5b898911611d27576040517f08c379a0000000000000000000000000000000000000000000000000000000008152600401808060200182810382526026815260200180612ad76026913960400191505060405180910390fd5b6000888885858d60405160200180868680828437808301925050508484808284378083019250505082815260200195505050505050604051602081830303815290604052805190602001209050600060066000838152602001908152602001600020905060018160000160006101000a81548160ff02191690831515021790555060008160000160016101000a81548160ff021916908360ff1602179055508b81600101819055508a8160020181905550828160030160006101000a81548173ffffffffffffffffffffffffffffffffffffffff021916908373ffffffffffffffffffffffffffffffffffffffff1602179055508989826004019190611e2e9291906129bb565b508781600501819055508686826006019190611e4b9291906129bb565b506007829080600181540180825580915050600190039060005260206000200160009091909190915055611e8e60016007805490506128b190919063ffffffff16565b600881905550505050505050505050505050565b60096020528060005260406000206000915090505481565b600085858585856040516020018086868082843780830192505050848480828437808301925050508281526020019550505050505060405160208183030381529060405280519060200120905095945050505050565b600080611f208888888888611eba565b90506006600082815260200190815260200160002060080160008473ffffffffffffffffffffffffffffffffffffffff1673ffffffffffffffffffffffffffffffffffffffff16815260200190815260200160002060009054906101000a900460ff169150509695505050505050565b60085481565b6000600260008373ffffffffffffffffffffffffffffffffffffffff1673ffffffffffffffffffffffffffffffffffffffff16815260200190815260200160002060000160009054906101000a900460ff169050919050565b600060149054906101000a900460ff16612054576040517f08c379a0000000000000000000000000000000000000000000000000000000008152600401808060200182810382526025815260200180612b216025913960400191505060405180910390fd5b60011515600160003373ffffffffffffffffffffffffffffffffffffffff1673ffffffffffffffffffffffffffffffffffffffff16815260200190815260200160002060009054906101000a900460ff161515146120fd576040517f08c379a000000000000000000000000000000000000000000000000000000000815260040180806020018281038252602c815260200180612aab602c913960400191505060405180910390fd5b6003600081548092919060010191905055506001600260008473ffffffffffffffffffffffffffffffffffffffff1673ffffffffffffffffffffffffffffffffffffffff16815260200190815260200160002060000160006101000a81548160ff0219169083151502179055507f3bfdb99fbcef24ea247a0804fbb61674b13e92dafc59610dfcac7321d700796a8183604051808373ffffffffffffffffffffffffffffffffffffffff1681526020018273ffffffffffffffffffffffffffffffffffffffff1681526020019250505060405180910390a15050565b600060149054906101000a900460ff1661223e576040517f08c379a0000000000000000000000000000000000000000000000000000000008152600401808060200182810382526025815260200180612b216025913960400191505060405180910390fd5b60011515600160003373ffffffffffffffffffffffffffffffffffffffff1673ffffffffffffffffffffffffffffffffffffffff16815260200190815260200160002060009054906101000a900460ff161515146122e7576040517f08c379a000000000000000000000000000000000000000000000000000000000815260040180806020018281038252602c815260200180612aab602c913960400191505060405180910390fd5b826006600082815260200190815260200160002060000160009054906101000a900460ff1661237e576040517f08c379a000000000000000000000000000000000000000000000000000000000815260040180806020018281038252601a8152602001807f5468697320666c6967687420646f6573206e6f7420657869737400000000000081525060200191505060405180910390fd5b600060066000868152602001908152602001600020905060018160080160008573ffffffffffffffffffffffffffffffffffffffff1673ffffffffffffffffffffffffffffffffffffffff16815260200190815260200160002060006101000a81548160ff021916908315150217905550838160090160008573ffffffffffffffffffffffffffffffffffffffff1673ffffffffffffffffffffffffffffffffffffffff168152602001908152602001600020819055506005839080600181540180825580915050600190039060005260206000200160009091909190916101000a81548173ffffffffffffffffffffffffffffffffffffffff021916908373ffffffffffffffffffffffffffffffffffffffff1602179055508060050154600960008360030160009054906101000a900473ffffffffffffffffffffffffffffffffffffffff1673ffffffffffffffffffffffffffffffffffffffff1673ffffffffffffffffffffffffffffffffffffffff168152602001908152602001600020819055505050505050565b60035481565b6000806125218888888888611eba565b90506006600082815260200190815260200160002060090160008473ffffffffffffffffffffffffffffffffffffffff1673ffffffffffffffffffffffffffffffffffffffff168152602001908152602001600020549150509695505050505050565b600060149054906101000a900460ff166125e9576040517f08c379a0000000000000000000000000000000000000000000000000000000008152600401808060200182810382526025815260200180612b216025913960400191505060405180910390fd5b806006600082815260200190815260200160002060000160009054906101000a900460ff16612680576040517f08c379a000000000000000000000000000000000000000000000000000000000815260040180806020018281038252601a8152602001807f5468697320666c6967687420646f6573206e6f7420657869737400000000000081525060200191505060405180910390fd5b600060066000848152602001908152602001600020905060005b6005805490508110156128ab57816009016000600583815481106126ba57fe5b9060005260206000200160009054906101000a900473ffffffffffffffffffffffffffffffffffffffff1673ffffffffffffffffffffffffffffffffffffffff1673ffffffffffffffffffffffffffffffffffffffff16815260200190815260200160002054600960006005848154811061273157fe5b9060005260206000200160009054906101000a900473ffffffffffffffffffffffffffffffffffffffff1673ffffffffffffffffffffffffffffffffffffffff1673ffffffffffffffffffffffffffffffffffffffff168152602001908152602001600020819055507f9c9e0cdb1670e88302408e5b941dc636f63a3293204694bb68910fcf3d9305f3600582815481106127c857fe5b9060005260206000200160009054906101000a900473ffffffffffffffffffffffffffffffffffffffff168360090160006005858154811061280657fe5b9060005260206000200160009054906101000a900473ffffffffffffffffffffffffffffffffffffffff1673ffffffffffffffffffffffffffffffffffffffff1673ffffffffffffffffffffffffffffffffffffffff16815260200190815260200160002054604051808373ffffffffffffffffffffffffffffffffffffffff1681526020018281526020019250505060405180910390a1808060010191505061269a565b50505050565b60006128f383836040518060400160405280601e81526020017f536166654d6174683a207375627472616374696f6e206f766572666c6f7700008152506128fb565b905092915050565b60008383111582906129a8576040517f08c379a00000000000000000000000000000000000000000000000000000000081526004018080602001828103825283818151815260200191508051906020019080838360005b8381101561296d578082015181840152602081019050612952565b50505050905090810190601f16801561299a5780820380516001836020036101000a031916815260200191505b509250505060405180910390fd5b5060008385039050809150509392505050565b828054600181600116156101000203166002900490600052602060002090601f016020900481019282601f106129fc57803560ff1916838001178555612a2a565b82800160010185558215612a2a579182015b82811115612a29578235825591602001919060010190612a0e565b5b509050612a379190612a3b565b5090565b5b80821115612a54576000816000905550600101612a3c565b509056fe436f6e747261637420616c726561647920696e20746865207374617465207265717565737465644e6f20616d6f756e7420746f206265207472616e7366657272656420746f2074686973206164647265737341646472657373206e6f7420617574686f72697a656420746f2063616c6c20746869732066756e6374696f6e4120666c696768742063616e6e6f74206c616e64206265666f72652074616b696e67206f66664120666c696768742063616e6e6f742074616b65206f666620696e207468652070617374436f6e74726163742069732063757272656e746c79206e6f74206f7065726174696f6e616c5468697320666c696768742068617320616c7265616479206265656e2070726f636573736564a26469706673582212200765061315a07cde06a28a1171e3e40e112b4c81ed8946cc52be5449242786d064736f6c63430007030033",
  "linkReferences": {},
  "deployedLinkReferences": {}
}